:100000000C94BC040C94DD040C94DD040C94DD040D
:100010000C94DD040C94DD040C94DD040C94DD04DC
:100020000C94DD040C94F8280C94DD040C94DE315F
:100030000C94DD040C94DD040C94DD040C94DD04BC
:100040000C94DD040C943F160C94DD040C94DD0438
:100050000C94DD040C94DD040C94DD040C94CC1899
:100060000C94DD040C9477140C9435140C94DD047A
:100070000C94DD040C94DD040C94DD040C94DD047C
:100080000C94DD040C94DD040C94DD040C94DD046C
:100090000C94DD040C94DD040C94DD040C94DD045C
:1000A0000C94DD040C94DD040C94DD040C94DD044C
:1000B0000C94DD040C94DD040C94DD040C94DD043C
:1000C0000C94DD040C94DD040C94DD040C94DD042C
:1000D0000C94DD040C94DD040C94DD040C94DD041C
:1000E0000C94DD048B0C8B138B13030C8B138B1371
:1000F0000D0C1A0C270C340C8B13380C8B13460C7C
:100100008B13500C5A0C980C8B138B138B13640CA1
:10011000710C7E0CBD12CE12ED12CE12F112041330
:10012000F712FD12512257225A225D2262226A22C0
:100130007422E722E722E7227C227E228722902275
:100140009822E722E722E722E722E722A022AA223A
:10015000B622BE22C122CA22D322D922082D0B2DBB
:10016000102D132D162D192D1C2D1F2D222D252D53
:10017000282D342D342D342D342D342D342D342D83
:10018000342D2E2D2B2D312D084AD73B3BCE016E21
:1001900084BCBFFDC12F3D6C74319ABD56833DDADE
:1001A0003D00C77F11BED9E4BB4C3E916BAAAABEED
:1001B000000000803F05A84CCDB2D44EB93836A916
:1001C000020C50B9918688083CA6AAAA2ABE000053
:1001D00000803F3E0D0A002C52583A002C427566B2
:1001E0003A002C002C57506F733A002C002C4D50C5
:1001F0006F733A003C436865636B003C416C61720D
:100200006D003C486F6D65003C486F6C64003C526B
:10021000756E003C5175657565003C49646C650000
:100220005D0D0A005B302E39372E323031343038D4
:1002300032323A000D0A003D00244E005D0D0A00E6
:10024000204600205400204D3800204D3900204D1C
:100250003500204D3400204D3300204D3200204D1C
:100260003100204D30002047393400204739330019
:1002700020473931002047393000204732300020F4
:1002800047323100204731390020473138002047BC
:100290003137002047005B473830005B4733005B55
:1002A0004732005B4731005B4730005D0D0A005B61
:1002B000544C4F3A005D0D0A002C005B4739323A2E
:1002C000005D0D0A002C003A003330003238005B2C
:1002D00047005D0D0A002C005B5052423A00290D88
:1002E0000A00206D61782074726176656C2C206D37
:1002F0006D0020616363656C2C206D6D2F736563E9
:100300005E3200206D617820726174652C206D6D05
:100310002F6D696E002C20737465702F6D6D0063F6
:10032000007A00790078002028003D002400202871
:10033000686F6D696E672070756C6C2D6F66662CCA
:10034000206D6D290D0A002028686F6D696E672089
:100350006465626F756E63652C206D736563290D2E
:100360000A2432373D002028686F6D696E6720735C
:1003700065656B2C206D6D2F6D696E290D0A243219
:10038000363D002028686F6D696E6720666565647C
:100390002C206D6D2F6D696E290D0A2432353D00BC
:1003A000290D0A2432343D002028686F6D696E677C
:1003B0002064697220696E76657274206D61736B5A
:1003C0003A002028686F6D696E67206379636C65F9
:1003D0002C20626F6F6C290D0A2432333D002028D7
:1003E00068617264206C696D6974732C20626F6F30
:1003F0006C290D0A2432323D002028736F66742068
:100400006C696D6974732C20626F6F6C290D0A24FE
:1004100032313D0020286175746F207374617274ED
:100420002C20626F6F6C290D0A2432303D00202889
:100430007265706F727420696E636865732C2062D8
:100440006F6F6C290D0A2431343D002028617263DE
:1004500020746F6C6572616E63652C206D6D290D63
:100460000A2431333D0020286A756E6374696F6E0B
:1004700020646576696174696F6E2C206D6D290D3D
:100480000A2431323D00290D0A2431313D00202853
:10049000737461747573207265706F7274206D610E
:1004A000736B3A00202870726F62652070696E204D
:1004B000696E766572742C20626F6F6C290D0A2448
:1004C00031303D0020286C696D69742070696E734D
:1004D00020696E766572742C20626F6F6C290D0A2C
:1004E00024363D0020287374657020656E61626C4F
:1004F0006520696E766572742C20626F6F6C290DB1
:100500000A24353D00290D0A24343D002028646961
:100510007220706F727420696E76657274206D61DE
:10052000736B3A00290D0A24333D0020287374654B
:100530007020706F727420696E76657274206D61C0
:10054000736B3A002028737465702069646C6520B1
:1005500064656C61792C206D736563290D0A243202
:100560003D002028737465702070756C73652C20B5
:1005700075736563290D0A24313D0024303D002444
:1005800024202876696577204772626C2073657431
:1005900074696E6773290D0A2423202876696577AC
:1005A000202320706172616D6574657273290D0A74
:1005B0002447202876696577207061727365722000
:1005C0007374617465290D0A24492028766965775A
:1005D000206275696C6420696E666F290D0A244E6D
:1005E0002028766965772073746172747570206253
:1005F0006C6F636B73290D0A24783D76616C7565A9
:10060000202873617665204772626C20736574746C
:10061000696E67290D0A244E783D6C696E65202845
:1006200073617665207374617274757020626C6F8B
:10063000636B290D0A24432028636865636B206778
:10064000636F6465206D6F6465290D0A2458202846
:100650006B696C6C20616C61726D206C6F636B29CF
:100660000D0A2448202872756E20686F6D696E67C8
:10067000206379636C65290D0A24562064697370C0
:100680006C61792076657273696F6E0D0A7E202821
:100690006379636C65207374617274290D0A21207B
:1006A000286665656420686F6C64290D0A3F202800
:1006B00063757272656E7420737461747573290D3D
:1006C0000A6374726C2D78202872657365742047F4
:1006D00072626C290D0A000D0A2456455253494F87
:1006E0004E203D20302E39370D0A005D0D0A0044A2
:1006F000697361626C656400456E61626C6564007B
:1007000043617574696F6E3A20556E6C6F636B65EB
:100710006400272448277C2724582720746F2075DD
:100720006E6C6F636B00526573657420746F206329
:100730006F6E74696E7565005B000D0A0050726F14
:100740006265206661696C0041626F727420647535
:1007500072696E67206379636C6500486172642F0B
:10076000736F6674206C696D697400414C41524D21
:100770003A20000D0A00496E76616C696420676357
:100780006F64652049443A00556E646566696E651C
:10079000642066656564207261746500556E7375CA
:1007A00070706F7274656420636F6D6D616E64004C
:1007B0004D6F64616C2067726F75702076696F6C25
:1007C0006174696F6E004C696E65206F7665726644
:1007D0006C6F7700486F6D696E67206E6F7420656F
:1007E0006E61626C656400416C61726D206C6F6358
:1007F0006B004E6F742069646C6500454550524F24
:100800004D2072656164206661696C2E20557369A4
:100810006E672064656661756C74730056616C75F3
:1008200065203C20332075736563005365747469DB
:100830006E672064697361626C65640056616C75F3
:1008400065203C203000496E76616C6964207374C9
:100850006174656D656E7400426164206E756D62D1
:10086000657220666F726D6174004578706563749F
:10087000656420636F6D6D616E64206C6574746572
:1008800072006572726F723A20006F6B0D0A000081
:100890000C940D0C0C94252D0C94312D0C94742279
:1008A0000C9457220C945D220C94282D0C94132D3B
:1008B0000C942B2D0C94B6220C9462220C94340CC4
:1008C0000C945A0C0C945A220C94192D0C94FD1271
:1008D0000C94BE220C941C2D0C94342D0C94D32219
:1008E0000C94500C0C94980C0C947E220C947E0C5E
:1008F0000C941F2D0C9498220C94082D0C94D92242
:100900000C94710C0C946A220C94030C0C94041338
:100910000C94BD120C94A0220C94270C0C94512220
:100920000C94102D0C94AA220C940B2D0C94380CC2
:100930000C9490220C94CA220C94CE120C948B131B
:100940000C94ED120C948B0C0C94460C0C94640CCF
:100950000C94E7220C9487220C94162D0C941A0CFC
:100960000C942E2D0C94F7120C94C1220C94F112BD
:100970000C94222D0C947C2211241FBECFEFD1E2C7
:10098000DEBFCDBF00E00CBF12E0A0E0B2E0E0EBC4
:10099000FFE600E00BBF02C007900D92A630B10742
:1009A000D9F718E0A6E0B2E001C01D92A536B10764
:1009B000E1F70E94DF040C94D6370C9400000E94EB
:1009C00003140E94F3220E944A190E94C93186E250
:1009D000E9E9F6E0DF011D928A95E9F781E080936D
:1009E000990678948091540884FF03C081E0809335
:1009F0009A06C1E00E94D1140E94C9090E94B51351
:100A00000E94DB130E94DD280E94B82C0E946B24F8
:100A10000E941E190E949D270E94DB0910929906D0
:100A200010929B068091540881FF03C0C093AD06CD
:100A300002C01092AD060E947815DCCFEF92FF92B3
:100A40001F93CF93DF9300D01F92CDB7DEB77C0109
:100A5000122F8091540885FF0BC0C70149835A8328
:100A60006B837C830E94132B7C816B815A8149812B
:100A700080919A06823021F149835A836B837C836B
:100A80000E94D6148091990681111AC00E94BA243E
:100A900049815A816B817C81882339F00E946B15D2
:100AA00049815A816B817C81E7CF212FC7010E9448
:100AB000C22480919A06811103C088E080939A062F
:100AC0000F900F900F900F90DF91CF911F91FF909B
:100AD000EF9008952F923F924F925F926F927F9284
:100AE0008F929F92AF92BF92CF92DF92EF92FF923E
:100AF0000F931F93CF93DF93CDB7DEB7E7970FB672
:100B0000F894DEBF0FBECDBF9C8B8B8B1B013A01CF
:100B100009871A872B873C87AD8A2E961FAD2E97A3
:100B20002F962FAD2F97298B84E0889EA00111244A
:100B30005A834983AB89BC89A40FB51FBF8BAE8B89
:100B4000460D571D598F488FFA0180809180A280F1
:100B5000B3802D913D914D915C91C501B4010E94EE
:100B600084336A8F7B8F8C8F9D8FF4E01F9F800171
:100B700011242B893C89200F311F3F8F2E8FA30119
:100B8000400F511F59A348A3DA014D905D906D901D
:100B90007C90F9012081318142815381C301B201EE
:100BA0000E9484336AA37BA38CA39DA3A501940117
:100BB00050582D873E874F87588BD301C201B058BC
:100BC0008D839E83AF83B887E981FA81E20DF31D9F
:100BD0002A8D3B8D4C8D5D8D6081718182819381E9
:100BE0000E9483332B013C01F101E00FF11F2AA188
:100BF0003BA14CA15DA160817181828193810E94A2
:100C000083334B015C01A30192016D857E858F8545
:100C100098890E949B3669837A838B839C83A50184
:100C200094016D817E818F8198850E949B369B0106
:100C3000AC0169817A818B819C810E9484336983B4
:100C40007A838B839C83A50194016D857E858F8536
:100C500098890E949B364B015C01A30192016D8132
:100C60007E818F8198850E949B369B01AC01C501D6
:100C7000B4010E94833329813A814B815C810E94B7
:100C8000F7332B013C018091BF0620E030E0A90141
:100C9000823079F4C301B2010E94603687FD19C029
:100CA0002BED3FE049EC50E4C301B2010E948333D5
:100CB0000EC0C301B2010E945D34181654F02BED32
:100CC0003FE049EC50E4C301B2010E9484332B01A0
:100CD0003C018090500890905108A0905208B0902C
:100CE000530829853A854B855C85CA01B9010E9464
:100CF0008433A50194010E9483339B01AC01C5019B
:100D0000B4010E949B360E9428374B015C0120E011
:100D100030E040E05FE3C301B2010E949B362985C9
:100D20003A854B855C850E949B369F77A50194018F
:100D30000E9464340E943A350E94D1347FA36EA38E
:100D4000DB01AB2B09F486C14B01A12CB12CBD8971
:100D5000BB2361F0C501B4010E94FD349B01AC01CD
:100D6000C701B6010E949B366B017C01C501B4012D
:100D70000E94FD344B015C019B01AC01C301B20137
:100D80000E94643469877A878B879C87F989E4E0BD
:100D9000FE9FC00111242B893C89280F391F3A8BF3
:100DA000298BF101E80FF91FD9012D913D914D914A
:100DB0005C9160817181828193810E948333A5015E
:100DC00094010E9464346CAB7DAB8EAB9FAB2985E4
:100DD0003A854B855C85CA01B9010E949B369B010F
:100DE000AC0160E070E080E090E40E9483334B014E
:100DF0005C012BEA3AEA4AE25EE369857A858B85F3
:100E00009C850E949B362B013C0120E030E040E8AD
:100E100050E4C501B4010E9484339B01AC01C301BD
:100E2000B2010E949B3668A779A78AA79BA720E0FA
:100E300030E040E05FE3C501B4010E949B366CA73F
:100E40007DA78EA79FA7198201E010E0EEA1FFA168
:100E50000E171F0709F4FEC0B981BC3008F04AC064
:100E60002CA53DA54EA55FA56D817E818F819885BE
:100E70000E949B364B015C0128A539A54AA55BA5BC
:100E80006D857E858F8598890E949B36A50194018A
:100E90000E948433B62EA72E982E892E2CA53DA510
:100EA0004EA55FA56D857E858F8598890E949B36AE
:100EB0002B013C0128A539A54AA55BA56D817E8142
:100EC0008F8198850E949B369B01AC01C301B201C2
:100ED0000E9483336D877E878F87988BE981EF5FD0
:100EE000E9838B2D9A2DA92DB82D8D839E83AF83F9
:100EF000B8876EC0B80180E090E00E94FD3429857B
:100F00003A854B855C850E949B364B015C010E94B3
:100F100061346D837E838F839887C501B4010E94FD
:100F20001E374B015C01E88DF98D80819181A28192
:100F3000B3819C01AD01505829833A834B835C8374
:100F4000A8A1B9A18D919D910D90BC91A02D88ABC8
:100F500099ABAAABBBAB2D813E814F81588569818E
:100F60007A818B819C810E949B362B013C01A501DB
:100F7000940168A979A98AA99BA90E949B369B0123
:100F8000AC01C301B2010E9484336D877E878F87D5
:100F9000988BA501940169817A818B819C810E9443
:100FA0009B364B015C012D813E814F81588568A99C
:100FB00079A98AA99BA90E949B369B01AC01C50116
:100FC000B4010E9483336D837E838F839887198257
:100FD0002D853E854F8558896A8D7B8D8C8D9D8DA5
:100FE0000E948433EE89FF896083718382839383B7
:100FF0002D813E814F8158856AA17BA18CA19DA145
:101000000E948433AE8DBF8D6D937D938D939C93A1
:1010100013972CA93DA94EA95FA9E989FA89608196
:101020007181828193810E948433A989BA896D93E9
:101030007D938D939C9313972D89B701A6018B897E
:101040009C890E941E0580919906811121C00F5F25
:101050001F4FFCCE2D89B701A601C101E7960FB63F
:10106000F894DEBF0FBECDBFDF91CF911F910F91DE
:10107000FF90EF90DF90CF90BF90AF909F908F90B8
:101080007F906F905F904F903F902F900C941E0533
:10109000E7960FB6F894DEBF0FBECDBFDF91CF91BC
:1010A0001F910F91FF90EF90DF90CF90BF90AF9086
:1010B0009F908F907F906F905F904F903F902F9078
:1010C00008958F929F92AF92BF92CF92DF92EF924C
:1010D000FF924B015C0180919A06823009F447C06F
:1010E00020E030E040EA51E4C501B4010E949B36A3
:1010F0000E943A350E94D1346B017C010E94E815B0
:1011000020E030E04AE754E4C501B4010E949B3678
:101110004B015C0182E38C9DB0018D9D700D11240B
:1011200080E090E00E94FD349B01AC01C501B40158
:101130000E9483330E943A350E94D134CB010E9431
:10114000A128C114D10499F00E94D61421E0C21A3A
:10115000D1088091990681110AC08FEF90E722E0B3
:10116000815090402040E1F700C00000EACFFF909E
:10117000EF90DF90CF90BF90AF909F908F900895A9
:1011800084E080939A060E94D22881E00E94302950
:1011900082E00E9430290E94D61480919906811124
:1011A00008C00E94DB0910929A060E9422160C9435
:1011B000DD2808954F925F926F927F928F929F9257
:1011C000AF92BF92CF92DF92EF92FF920F931F9355
:1011D000CF93DF9300D01F92CDB7DEB74C016A01E9
:1011E0007B01722E80919A06823009F49EC00E9483
:1011F000E8156090AD060E94D22C882351F09FB76D
:10120000F89480919B06806480939B069FBF0E9408
:10121000D61480919906811188C0272DB701A601A7
:10122000C4010E941E0581E08093AE069FB7F8942A
:1012300080919B06826080939B069FBF0E94D6147C
:1012400080919906811171C080919A06877FB1F7CC
:101250008091AE06813041F49FB7F89480919B064F
:10126000806480939B069FBF0E94D614809199064C
:1012700081115BC00E941E190E946B240E949D2751
:101280000FEA16E087E0A82E88E0B82E2401F801C6
:1012900061917191819191918F01F501219131912C
:1012A000419151915F0129833A834B835C830E9472
:1012B000FF3429813A814B815C810E946434F201C0
:1012C00061937193819391932F01F6E00F3B1F0778
:1012D000F1F6272DB701A601C4010E941E059FB794
:1012E000F89480919B06826080939B069FBF0E942A
:1012F000E81580919906811118C06092AD060F9093
:101300000F900F900F90DF91CF911F910F91FF9051
:10131000EF90DF90CF90BF90AF909F908F907F9095
:101320006F905F904F900C94102F0F900F900F9034
:101330000F90DF91CF911F910F91FF90EF90DF9071
:10134000CF90BF90AF909F908F907F906F905F9065
:101350004F90089580919B0684FD1AC09FB7F89422
:1013600080919B06806180939B069FBF0E94B31370
:101370000E94D91380919A06847351F09FB7F89414
:1013800080919B06806280939B069FBF0C942216DF
:10139000089587E4EFEBF6E0DF011D928A95E9F707
:1013A00062EE76E080E00E94B121811103C087E007
:1013B0000C94F22C0895CF92DF92EF92FF920F934C
:1013C0001F93CF93DF9300D01F92CDB7DEB78DE987
:1013D000C82E86E0D82E97E0E92E98E0F92E02ED8F
:1013E00016E0F60161917191819191916F01F70180
:1013F00021913191419151917F0129833A834B830E
:101400005C830E94FF3429813A814B815C810E9478
:101410006434F80161937193819391938F01FDEA94
:10142000CF16F6E0DF06E9F60F900F900F900F90C1
:10143000DF91CF911F910F91FF90EF90DF90CF90B0
:1014400008952F923F924F925F926F927F928F9268
:101450009F92AF92BF92CF92DF92EF92FF920F9343
:101460001F93CF93DF93CDB7DEB7E3970FB6F89412
:10147000DEBF0FBECDBF98A78FA381E4E6E0F7E003
:10148000DF011D928A95E9F78AE0EFEBF6E0A7E02D
:10149000B7E001900D928A95E1F71DA2212C312C25
:1014A000A12CB12C19A6912C1EA244244394512C9A
:1014B0008824839482E0782E94E0692E8DA1EFA198
:1014C000F8A5E80FF11D0081002309F454C29FEB39
:1014D000900F9A3110F00C947D138F5F8DA3AE01A5
:1014E0004F5D5F4FBE016B5D7F4F8FA198A50E943E
:1014F000EF27882311F40C947F13C9A0DAA0EBA086
:10150000FCA0C701B6010E9469370E94D134162F92
:1015100070E080E090E00E94FF349B01AC01C701C5
:10152000B6010E94833320E030E048EC52E40E9490
:101530009B360E94FE360E94D134073421F00D34D0
:1015400009F412C14FC1163209F48DC0D0F4143120
:1015500060F4113108F0B3C0143009F453C008F43A
:1015600082C01A30A1F10C948B131C3181F128F444
:10157000163108F4C4C00C948B131E3141F10C9445
:101580008B13103509F497C0A8F4153309F459C02A
:1015900040F41B3209F4BCC0113309F4B9C00C94F7
:1015A0008B131C3310F00C948B13165310930D07F0
:1015B00087E0C7C01C3559F028F41A3508F08DC0F3
:1015C0000C948B131F3508F491C00C948B1361118C
:1015D00006C0BEA1B1110C948113E1E0EEA31C3151
:1015E000A1F040F4143071F01A3009F0A7C07092E5
:1015F0000607A4C0153329F11C3539F11E3109F055
:101600009DC010C08092060799C0662339F06A30E9
:1016100011F00C948B136092060709C0F3E0F0936D
:10162000060705C0611105C025E02093060780E08C
:101630008DC06A3011F00C948B1336E0309306079E
:10164000F6CF87E08093060779C0662341F06A30C1
:1016500011F00C948B13A9E0A0930607E8CF98E053
:1016600090930607E4CFBEA1B1110C948113E2E080
:10167000EEA3123089F028F4112359F0113081F0D3
:101680005FC0163281F01035B1F0133009F058C048
:1016900007C01092070754C0FEA1F093070750C07F
:1016A000109307074DC0643111F00C948B136092B6
:1016B000070781E04BC025E02093070741C01231A6
:1016C00029F0133131F010920B0705C080920B07FF
:1016D00002C070920B0782E034C01A3519F41092E0
:1016E0000A0702C080920A0783E02BC01D3519F457
:1016F0008092080702C01092080784E022C01431CB
:1017000019F48092090702C01092090785E019C0F8
:101710003EA131110C948113113331F410920C0756
:1017200086E093E09EA312C06A3011F00C948B13F4
:1017300080920C0786E0A3E0AEA308C080E001C061
:1017400081E0662319F087E10C949A13F20102C03C
:10175000EE0FFF1F8A95E2F7CF019F012A213B215F
:10176000232BE9F185E1E6C76111EDCF163018F4BE
:10177000133048F014C0183008F4CDC71A30E8F020
:101780001E3151F0C8C7123039F01E3129F0111145
:101790001DC080920E071AC070920E0717C0143039
:1017A00029F0153031F08092100705C070921007B3
:1017B00002C01092100789E00AC0193019F0709227
:1017C0000F0702C010920F078AE001C088E0920163
:1017D00002C0220F331F8A95E2F7C901BFCFA82AA2
:1017E000B92A6CCE802F992787FD9095A92FB92F04
:1017F000FC01E354F109E831F10508F08CC7EE581B
:10180000FF4F0C94C137C0921107D0921207E0929B
:101810001307F092140780E08CC0C0921507D09295
:101820001607E0921707F092180739A5316039A71B
:1018300081E07FC0C0921907D0921A07E0921B077F
:10184000F0921C0789A5826089A782E072C0C092CD
:101850001D07D0921E07E0921F07F092200799A55E
:10186000946099A783E065C01093250784E061C068
:10187000C701B6010E94CC346093260770932707F6
:10188000809328079093290785E053C0C0922A07C8
:10189000D0922B07E0922C07F0922D0786E049C0EA
:1018A000C0922E07D0922F07E0923007F0923107B6
:1018B00087E03FC0C0923207D0923307E0923407EE
:1018C000F092350788E035C0C0923707D0923807CC
:1018D000E0923907F0923A07A92DA1609A2E8AE08A
:1018E00028C0C0923B07D0923C07E0923D07F0929F
:1018F0003E07B92DB2609B2E8BE01BC0C0923F0704
:10190000D0924007E0924107F0924207E92DE4604F
:101910009E2E8CE00EC0C0924307D0924407E09206
:101920004507F0924607F92DF8609F2E8DE001C023
:1019300089E08201082E02C0000F111F0A94E2F70D
:10194000980122213321232B09F0DDC621E633E063
:1019500002C0359527958A95E2F720FF09C020E05F
:1019600030E0A901C701B6010E945D3487FDCDC6F4
:10197000202A312AA3CD992029F03EA1311102C09D
:1019800082E08EA325FE0EC0809126079091270746
:10199000A0912807B091290780389649A849B10538
:1019A0000CF0B5C680910807813031F4FEA1F23009
:1019B000A1F520FEB6C631C08091C00681112DC0B0
:1019C00020FE1BC080910907813039F523E333E302
:1019D0004BEC51E46091110770911207809113074D
:1019E000909114070E949B36609311077093120721
:1019F000809313079093140710C08091CD069091A7
:101A0000CE06A091CF06B091D00680931107909397
:101A10001207A0931307B093140730FC10C08091F5
:101A2000C9069091CA06A091CB06B091CC068093CE
:101A3000320790933307A0933407B0933507809112
:101A40000607813031F426FC02C08CE173C6E894AD
:101A500026F880910B07882341F0813061F019AAA4
:101A600082E088AB91E09FA70BC022E029AB31E078
:101A700038AB1FA605C0A1E0A9AB18AAB2E0BFA76A
:101A800080910907813021F0EEA1E33091F52AC061
:101A900017E3E12E17E0F12E00E010E0C92CD12C65
:101AA000C601002E02C0959587950A94E2F780FF43
:101AB00010C023E333E34BEC51E4D7016D917D91EA
:101AC0008D919C910E949B36F70160837183828384
:101AD00093830F5F1F4FF4E0EF0EF11C04301105EC
:101AE000F9F6D2CF80910C07813019F424E09212DC
:101AF00010C680E1E2EEF6E0DE01519601900D9213
:101B00008A95E1F7A7FC09C0309106073FA3323060
:101B1000B9F0383009F4AFC00EC180910D0787309D
:101B200010F08DE107C69091C506981769F3BE01C4
:101B30006F5E7F4F0E94B1218111E6CF87E0FAC529
:101B4000911002C08AE1F6C5C10180759927892BE1
:101B500009F47BCF60912A0770912B0780912C07A5
:101B600090912D070E9469370E94D1346730C8F6E2
:101B700080912507843129F0823009F0CCC527FCFB
:101B8000CAC58FEA2822662319F061506FA303C0EB
:101B900090910D079FA3BE016F5F7F4F8FA10E94A1
:101BA000B121882359F28090250740900207509078
:101BB00003076090040770900507DE0111967D0110
:101BC000A7E3AA2EA7E0BA2EB2EDCB2EB6E0DB2E0D
:101BD00000E010E0E92DF0E0FEA7EDA78DA59EA5A1
:101BE000002E02C0959587950A94E2F780FF33C0D6
:101BF000F4E18F1226C0D60190962D913D914D9122
:101C00005C9193976D917D918D919C910E9483330E
:101C1000F50120813181428153810E948333D701B4
:101C20006D937D938D939C9313970230A1F4A30140
:101C300092010E948333F7016083718382839383CF
:101C40000AC0F50180819181A281B381F70180836F
:101C50009183A283B3830F5F1F4FF4E0EF0EF11C5B
:101C600024E0A20EB11C34E0C30ED11C04301105D7
:101C700009F0B4CF09C1992009F464CF409002075C
:101C800050900307609004077090050707E317E082
:101C9000C12CD12CE12CF12CA92CB12CF601E15452
:101CA000F94FC5010E2C02C0959587950A94E2F76D
:101CB00080FF2AC0A1E1B0E0AC0FBD1FAC0DBD1D7F
:101CC0002D913D914D915C916389748985899689A7
:101CD0000E948333D8012D913D914D915C910E94DA
:101CE0008333F8016083718382839383F2E0EF1280
:101CF00014C0A30192010E948333D8016D937D9398
:101D00008D939C93139709C083A994A9A5A9B6A9FB
:101D1000F80180839183A283B383FFEFEF1AFF0A58
:101D20000C5F1F4F24E0C20ED11C34E0E316F10417
:101D300009F0B4CFA8C08EA1833059F49FA195308B
:101D400009F48FC0973009F499C0933009F09BC013
:101D500080C0992099F380900A0740900207509024
:101D600003076090040770900507F2EDCF2EF6E0B0
:101D7000DF2E07E317E05E01A1E1AA0EB11CE12C02
:101D8000F12CE92DF0E0FEA7EDA78DA59EA50E2C68
:101D900002C0959587950A94E2F780FD0BC0F60185
:101DA00080819181A281B381F80180839183A28394
:101DB000B3833EC0FFA1F730D9F1811028C0D6010E
:101DC00090962D913D914D915C919397F501608195
:101DD0007181828193810E948433D8012D913D913C
:101DE0004D915C910E948433F801608371838283FA
:101DF0009383F2E0EF121CC0A30192010E9484338E
:101E0000D8016D937D938D939C93139711C0F60128
:101E10002081318142815381D8016D917D918D91D5
:101E20009C910E948433F801608371838283938341
:101E3000FFEFEF1AFF0A24E0C20ED11C0C5F1F4F08
:101E400034E0A30EB11C84E0E816F10409F09DCF44
:101E500075CF911001C01EA2BE016F5F7F4F86E05B
:101E600007C0911001C01EA2BE016F5F7F4F87E0C7
:101E70000E94B121882309F461CE05C08091070733
:101E8000823008F04AC41FA210910707153041F4B0
:101E9000992009F4DBC19EA1913009F040C4B3C27E
:101EA000AEA1A23009F0D2C11123D9F020E030E078
:101EB000A901609111077091120780911307909109
:101EC00014070E945D34882309F42BC4143028F4CD
:101ED000123058F4113029F096C2143009F461C15F
:101EE00092C2911090C21EA2B4C1992009F42ACEC8
:101EF000FFA5EF2FF0E0FEA7EDA738A9232F30E0D4
:101F00003BAB2AAB81E090E03C0108A802C0660C24
:101F1000771C0A94E2F70FA402C0880F991F0A9455
:101F2000E2F7682A792A892D90E086219721892B6A
:101F300009F4F9C3CF01880F991F880F991FFC017D
:101F4000EA5FF84FDC01A154B94F53962D913D91B2
:101F50004D915C91569761A972A983A994A90E9499
:101F600083336B017C018AA99BA9880F991F880F75
:101F7000991FFC01EA5FF84FDC01A154B94F539659
:101F80002D913D914D915C91569761A972A983A9BC
:101F900094A90E9483334B015C0127FE54C0E8944E
:101FA00027F8209137073091380740913907509131
:101FB0003A076091D2067091D3068091D406909131
:101FC000D5060E945D34811148C120913B073091B4
:101FD0003C0740913D0750913E076091D6067091B5
:101FE000D7068091D8069091D9060E945D34811160
:101FF00034C120913F0730914007409141075091F3
:1020000042076091DA067091DB068091DC069091C0
:10201000DD060E945D34811120C12091430730917B
:10202000440740914507509146076091DE06709144
:10203000DF068091E0069091E1060E945D348111F7
:102040000CC181E277C3F9A54F2E512C6420752075
:10205000672809F46AC321EF2222809109078130A1
:1020600009F45AC00AA91BA9000F111F000F111F64
:10207000065F184FD8011B962D913D914D915C91B3
:102080001E97C501B4010E9483332B013C01ADA40E
:10209000BEA4AA0CBB1CAA0CBB1CF501E65FF84F42
:1020A0005F012385348545855685C701B6010E94A9
:1020B0008333A30192010E94AC286B017C01D801FB
:1020C0001B962D913D914D915C911E97F501638575
:1020D0007485858596850E94AC284B015C016093D0
:1020E0002E0770932F0780933007909331079B0141
:1020F000AC01C701B6010E9483336B017C01E894F7
:10210000F7F82AE037ED43EA5BE3C701B6010E9426
:10211000603618164CF177C125E1622E27E0722E49
:1021200000E010E0C201002E02C0959587950A9448
:10213000E2F780FF10C023E333E34BEC51E4D3011B
:102140006D917D918D919C910E949B36F3016083EE
:102150007183828393830F5F1F4FF4E06F0E711CB6
:1021600004301105F9F67ECF20E030E040E05FE377
:10217000C701B6010E94603618160CF462CF2FE634
:1021800032E143E85AE3C501B4010E949B369B014A
:10219000AC01C701B6010E94603618160CF451CF8D
:1021A00032C1992009F4CECC2091370730913807FD
:1021B0004091390750913A076091D2067091D30649
:1021C0008091D4069091D5060E945D3481111BC187
:1021D00020913B0730913C0740913D0750913E07CD
:1021E0006091D6067091D7068091D8069091D90655
:1021F0000E945D34811107C120913F073091400753
:1022000040914107509142076091DA067091DB06D8
:102210008091DC069091DD060E945D348111F3C04F
:10222000209143073091440740914507509146075C
:102230006091DE067091DF068091E0069091E106E4
:102240000E945D34882309F4FCCEDDC02EA121114B
:10225000DAC0C1018E7D9C7FD9C080910907813091
:10226000B1F423E333E34BEC51E460912E0770911A
:102270002F0780913007909131070E949B36609321
:102280002E0770932F07809330079093310740906B
:102290002E0750902F07609030077090310720E094
:1022A00030E040E850E4C301B2010E949B36A30134
:1022B00092010E949B362B013C01A7019601C701A8
:1022C000B6010E949B369B01AC01C301B2010E9482
:1022D00083332B013C01A5019401C501B4010E9487
:1022E0009B369B01AC01C301B2010E9483332B01D9
:1022F0003C0120E030E0A9010E945D3487FD19C255
:10230000C301B2010E9428372B013C01A5019401B1
:10231000C701B6010E94AC289B01AC01C301B20108
:1023200090580E9464342B013C0180910707833050
:1023300021F477FA709477F8709480912E07909139
:102340002F07A0913007B091310789A79AA7ABA7B3
:10235000BCA720E030E0A901BC01CD010E945D34A2
:1023600087FF11C077FA709477F8709489A59AA5C1
:10237000ABA5BCA5B05880932E0790932F07A093D0
:102380003007B09331070DA51EA5000F111F000FD8
:10239000111F065F184FA3019201C501B4010E94ED
:1023A0009B369B01AC01C701B6010E94833320E03C
:1023B00030E040E05FE30E949B36D8011B966D93AE
:1023C0007D938D939C931E970AA91BA9000F111F43
:1023D000000F111F065F184FA3019201C701B6013C
:1023E0000E949B369B01AC01C501B4010E9484335D
:1023F00020E030E040E05FE30E949B36F801638715
:10240000748785879687C1018E7D907C892B09F022
:102410008EC1809108078093C0068091110790912A
:102420001207A0911307B09114078093CD069093E3
:10243000CE06A093CF06B093D006C0903207D090BE
:102440003307E0903407F0903507A70196016091BB
:10245000C9067091CA068091CB069091CC060E9465
:102460005D34882381F0C092C906D092CA06E092FA
:10247000CB06F092CC068091C806882321F0B701E4
:10248000A6010E94B913809136078093D1068091EE
:1024900010079091C806981761F08093C806409184
:1024A000C9065091CA066091CB067091CC060E9475
:1024B000B91380910F079091C706981721F0809368
:1024C000C7060E94DE1380910607813051F46091A7
:1024D0002A0770912B0780912C0790912D070E945D
:1024E000610880910B078093C30680910907809350
:1024F000C1063EA13330F9F480910C078093C406E5
:10250000813089F480913F0790914007A091410765
:10251000B09142078093020790930307A0930407AA
:10252000B093050708C0109202071092030710929B
:1025300004071092050780910D079091C506981722
:1025400059F08093C50680E1FE017196A2EEB6E0D7
:1025500001900D928A95E1F780910A078093C20657
:102560008091060790E0FC013297E830F10508F011
:102570004BC0E657FF4F0C94C137BE016F5F7F4FD2
:102580008FA10E9477208091C5069FA189133CC02E
:1025900080E1FE013196A2EEB6E01AC0AEA1AA23F8
:1025A00049F020E040E050E060E87FEB87E397E00F
:1025B0000E941E0520E040E050E060E87FEBCE0185
:1025C00001960E941E0580E1FE013196A2EDB6E063
:1025D00001900D928A95E1F717C062ED76E086E0F2
:1025E00003C062ED76E087E00E9477200DC080E1B5
:1025F000E7E3F7E0A2EFB6E0EBCF80E1E2EFF6E051
:10260000DF011D928A95E9F7809107078093BF0645
:10261000853009F45DC0BEA1B23009F059C08430E4
:1026200090F4823058F58823F9F0813009F047C0E2
:102630004091CD065091CE066091CF067091D006A4
:102640002091C00616C08430D1F54091CD0650913E
:10265000CE066091CF067091D0062091C00687E328
:1026600097E00E94DA082BC020E040E050E060E8EC
:102670007FEB87E397E00E941E0521C0C090CD0646
:10268000D090CE06E090CF06F090D00600912E07B5
:1026900010912F072091300730913107E9A9EF936E
:1026A000F8A9FF938FA4A090C00645E157E067E327
:1026B00077E082ED96E00E946A050F900F9080E12E
:1026C000E7E3F7E0A2EDB6E001900D928A95E1F71D
:1026D00080910E078093C606882369F00E94E81552
:1026E0001092AD068091C606823019F40E94AA09A4
:1026F00002C01092C60680E01DC081E01BC082E0CF
:1027000019C088E117C089E115C084E013C08BE1CE
:1027100011C085E20FC084E10DC08EE10BC08FE1D6
:1027200009C086E107C080E205C083E203C084E2FD
:1027300001C082E2E3960FB6F894DEBF0FBECDBFB4
:10274000DF91CF911F910F91FF90EF90DF90CF908D
:10275000BF90AF909F908F907F906F905F904F90C1
:102760003F902F900895429808953A9A399A0C9480
:10277000B313CF93DF931F92CDB7DEB790919A0634
:10278000923099F089830E946B150E94E815898127
:10279000811105C00F90DF91CF910C94B31381305C
:1027A00011F4419801C0419A429A0F90DF91CF9164
:1027B000089540980895389A0C94D913CF93DF93D5
:1027C0001F92CDB7DEB790919A06923079F0898347
:1027D0000E946B150E94E8158981823011F4409A9D
:1027E00005C00F90DF91CF910C94D9130F90DF911A
:1027F000CF9108959091080280910902891708F4F9
:102800008058891B0895E0ECF0E080818D7F808303
:102810001092C50087E68093C400E1ECF0E080816F
:1028200080618083808188608083808180688083EC
:102830000895E091070291E09E0F903409F490E032
:1028400020910602921305C020919B0624FFF8CF29
:102850000895F0E0E95BF84F808390930702809140
:10286000C10080628093C10008951F920F920FB63D
:102870000F9211240BB60F928F939F93EF93FF93B8
:1028800080910602E82FF0E0E95BF84F9081909389
:10289000C6008F5F803409F480E080930602909137
:1028A0000702891305C08091C1008F7D8093C1000C
:1028B000FF91EF919F918F910F900BBE0F900FBEE4
:1028C0000F901F9018959091080280910902891726
:1028D00061F0E92FF0E0E957F84F80819F5F903871
:1028E00009F490E09093080208958FEF08951F92E5
:1028F0000F920FB60F9211240BB60F922F933F93A6
:102900004F935F936F937F938F939F93AF93BF93F7
:10291000EF93FF938091C6008132B1F028F48831A3
:10292000E1F40E94AA092AC08F3341F08E37A9F43E
:102930009FB7F89480919B0682600BC09FB7F89474
:1029400080919B06816005C09FB7F89480919B069B
:10295000886080939B069FBF11C0E091090291E0BF
:102960009E0F903809F490E020910802921731F000
:10297000F0E0E957F84F808390930902FF91EF91BF
:10298000BF91AF919F918F917F916F915F914F9187
:102990003F912F910F900BBE0F900FBE0F901F9085
:1029A000189580910902809308020895CF93C091F1
:1029B0009B06CC2309F486C08C2F807639F181E008
:1029C00080939A06C6FF17C0C5FF02C08FEF01C0F3
:1029D0008DEF0E94402D81E00E945F2D9FB7F894FB
:1029E00080919B068F7E80939B069FBF80919B0664
:1029F00084FFFCCF03C08EEF0E94402D9FB7F89458
:102A000080919B068F7980939B069FBFC4FF04C073
:102A100081E0809399065DC0C0FF0AC00E94B63075
:102A20009FB7F89480919B068E7F80939B069FBFF3
:102A3000C3FF15C080919A06803149F480E28093EB
:102A40009A060E946C190E948E191092AD069FB7CB
:102A5000F89480919B06877F80939B069FBFC1FF60
:102A60001DC080919A06883089F480E180939A068F
:102A70000E948E190E9402168091540881FF04C0A2
:102A800081E08093AD0602C01092AD069FB7F89426
:102A900080919B068D7F80939B069FBFC2FF12C0D3
:102AA0000E949024892B21F088E080939A0602C02E
:102AB00010929A069FB7F89480919B068B7F809323
:102AC0009B069FBF80919A06847319F0CF910C9456
:102AD0008E19CF9108958091AD06882341F09FB75C
:102AE000F89480919B06826080939B069FBF089517
:102AF000CF93DF930E94852D80919A06813021F437
:102B000082E00E945F2D21C010929A068AE092E036
:102B10000E9425321AC08D3069F0DD2389F1D1E0A1
:102B2000893209F4D0E00E9463148F3F09F444C055
:102B30008A3089F7EC2FF0E0E65FFD4F10820E94AB
:102B4000D61480919906882311F0C0E0EBCF8091D4
:102B50000A02811103C00E94F22CF7CF843229F4BB
:102B60008AE092E00E944432F6CF80919A0681304A
:102B700011F489E0F0CF8AE092E00E94210AEBCFC5
:102B8000813288F28F3279F28832A1F0CF3428F086
:102B90008BE00E94F22CC0E0C6CF2C2F30E0CF5F3C
:102BA0009FE9980FF901E65FFD4F9A3108F48052D2
:102BB0008083B9CFD1E0B7CF0E946B150E94D614A5
:102BC00080919906882309F4AECFDF91CF910895C3
:102BD0000E946B1580919A06803171F481E0809398
:102BE000AD060AC080919A06803159F40E94D6142D
:102BF00080919906811105C00E949024892BB1F71C
:102C0000F1CF08958091540882FF02C0479A01C015
:102C1000479880919A068471A1F080918A028093EE
:102C2000A20280918B028093A10280914708880FB5
:102C3000845081958093A00280916F008260809380
:102C40006F00089580916F008D7F80936F00809159
:102C50008100887F81608093810010928902809139
:102C60004A088F3F21F490919B0695FF07C09091F1
:102C70009A06943019F090E00C94A12808951F92C0
:102C80000F920FB60F9211240BB60F922F933F9312
:102C90004F935F936F937F938F939F93AF93BF9364
:102CA000CF93DF93EF93FF938091890281115FC2ED
:102CB00092B18091A2028A7A9575892B82B982B1EC
:102CC0008A7A9091A102892B82B98091A00286BD57
:102CD00082E085BD81E08093890278948091B8027A
:102CE0009091B902892B09F0C0C080918E02909119
:102CF0008D02981709F4AEC0E0918E0286E0E89F3D
:102D0000F0011124E654FD4FF093B902E093B802AC
:102D10008381948190938900809388008081918140
:102D20009093B4028093B302A2818091B5028A1776
:102D3000B1F1A093B50285E1A89FD0011124A25260
:102D4000BD4FB093B702A093B60251968D919D915D
:102D50000D90BC91A02DB695A795979587958093DA
:102D60008F0290939002A0939102B093920280936D
:102D7000930290939402A0939502B093960280934D
:102D8000970290939802A0939902B0939A0280932D
:102D90009B0290939C02A0939D02B0939E02C091CF
:102DA000B602D091B70280918A02988189278093D8
:102DB000A202258189819A81AB81BC81022E04C047
:102DC000B695A795979587950A94D2F78093A30215
:102DD0009093A402A093A502B093A6028D819E8138
:102DE000AF81B885022E04C0B695A79597958795B3
:102DF0000A94D2F78093A7029093A802A093A90205
:102E0000B093AA0289859A85AB85BC85022E04C041
:102E1000B695A795979587950A94D2F78093AB02BC
:102E20009093AC02A093AD02B093AE028D859E85C7
:102E3000AF85B88904C0B695A795979587952A95CB
:102E4000D2F78093AF029093B002A093B102B093F7
:102E5000B2020BC00E9422169FB7F89480919B0685
:102E6000846080939B069FBF82C10E94D92C1092E0
:102E7000A1028091A3029091A402A091A502B09119
:102E8000A60240918F025091900260919102709140
:102E90009202840F951FA61FB71F80938F029093F5
:102EA0009002A0939102B0939202E091B602F09149
:102EB000B7024189528963897489481759076A079B
:102EC0007B0768F521E02093A1024189528963893B
:102ED0007489841B950BA60BB70B80938F0290937C
:102EE0009002A0939102B0939202208180919D065E
:102EF00090919E06A0919F06B091A00621FF04C06C
:102F00000197A109B10903C00196A11DB11D8093CC
:102F10009D0690939E06A0939F06B093A006809175
:102F2000A7029091A802A091A902B091AA02409193
:102F30009302509194026091950270919602840FD1
:102F4000951FA61FB71F8093930290939402A0939E
:102F50009502B09396024189528963897489481712
:102F600059076A077B0778F52091A1022460209316
:102F7000A1024189528963897489841B950BA60B30
:102F8000B70B8093930290939402A0939502B09311
:102F9000960220818091A1069091A206A091A3069D
:102FA000B091A40623FF04C00197A109B10903C091
:102FB0000196A11DB11D8093A1069093A206A09336
:102FC000A306B093A4068091AB029091AC02A091AD
:102FD000AD02B091AE02409197025091980260917B
:102FE000990270919A02840F951FA61FB71F8093B4
:102FF000970290939802A0939902B0939A02418904
:10300000528963897489481759076A077B0778F5DD
:103010002091A10220612093A102418952896389F4
:103020007489841B950BA60BB70B80939702909322
:103030009802A0939902B0939A0220818091A506EC
:103040009091A606A091A706B091A80625FF04C0FE
:103050000197A109B10903C00196A11DB11D80937B
:10306000A5069093A606A093A706B093A806809104
:10307000AF029091B002A091B102B091B202409122
:103080009B0250919C0260919D0270919E02840F60
:10309000951FA61FB71F80939B0290939C02A0933D
:1030A0009D02B0939E0241895289638974894817B1
:1030B00059076A077B0778F52091A10220642093C5
:1030C000A1024189528963897489841B950BA60BDF
:1030D000B70B80939B0290939C02A0939D02B093A8
:1030E0009E0220818091A9069091AA06A091AB062C
:1030F000B091AC0627FF04C00197A109B10903C034
:103100000196A11DB11D8093A9069093AA06A093D4
:10311000AB06B093AC0680919A06843039F4809166
:103120009C069091A10289238093A1028091B30211
:103130009091B40201979093B4028093B302892BCB
:1031400069F41092B9021092B80280918E028F5FDA
:1031500080938E02863011F410928E0280918B0241
:103160009091A10289278093A10210928902FF9178
:10317000EF91DF91CF91BF91AF919F918F917F910F
:103180006F915F914F913F912F910F900BBE0F90D8
:103190000FBE0F901F9018951F920F920FB60F92AF
:1031A00011248F939F9392B180918B0285759A7AA7
:1031B000892B82B915BC9F918F910F900FBE0F90F4
:1031C0001F901895FF920F931F93CF93DF93109248
:1031D0008B0210928A02C0E0D0E00C2F1C2F2091AD
:1031E000480830E08C2F0C2E02C0359527950A94A4
:1031F000E2F720FF07C0F0908B020E9426238F2960
:1032000080938B022091490830E002C035952795C4
:103210001A95E2F720FF08C010918A02802F0E94C1
:103220003423812B80938A022196C430D105A9F6DC
:10323000DF91CF911F910F91FF9008950E94221668
:103240008BE2EAE5F2E0DF01982F1D929A95E9F70B
:10325000EFE8F2E0DF011D928A95E9F7109288020B
:103260001092870210928E0210928D0281E080935C
:103270008C02109289020E94E21882B18A7A90919F
:103280008B02892B82B982B1857590918A02892B34
:1032900082B9089581B1856581B93F9A81B18A6A01
:1032A00081B9E1E8F0E080818F7E80838081886051
:1032B0008083E0E8F0E080818C7F808380818F7064
:1032C0008083EEE6F0E08081887F808314BC15BCAB
:1032D0008081816080830895CF93DF93C0918702BE
:1032E000D09188022097B9F081E080935B026091D1
:1032F00071027091720280917302909174029B012D
:10330000AC010E949B366D8B7E8B8F8B988F1092B9
:10331000880210928702DF91CF9108952F923F92F9
:103320004F925F926F927F928F929F92AF92BF92D5
:10333000CF92DF92EF92FF920F931F93CF93DF9381
:10334000CDB7DEB7E5970FB6F894DEBF0FBECDBFA1
:1033500090918E0280918C02981709F4F2C58091A9
:10336000870290918802892B09F068C20E949024FC
:103370001C019093880280938702009709F4E1C5AD
:1033800080915B0210919A06882319F010925B02DB
:10339000CEC080915A028F5F853019F080935A0217
:1033A00002C010925A02E0915A0225E12E9FF001CC
:1033B0001124E252FD4FF0938602E0938502D10181
:1033C0008C91808311964D915D916D917C911497B4
:1033D00003E0440F551F661F771F0A95D1F74183FD
:1033E00052836383748315964D915D916D917C91A9
:1033F000189783E0440F551F661F771F8A95D1F7F2
:10340000458356836783708719964D915D916D91C1
:103410007C911C9793E0440F551F661F771F9A9568
:10342000D1F741875287638774871D964D915D91CF
:103430006D917C91509723E0440F551F661F771FB5
:103440002A95D1F7458756876787708B51966D917E
:103450007D918D919C9154976B017C0133E0CC0C54
:10346000DD1CEE1CFF1C3A95D1F7C18AD28AE38A93
:10347000F48A0E94FD3460935C0270935D02809335
:103480005E0290935F02F10121A532A543A554A5E8
:103490000E9464349B01AC016093600270936102EE
:1034A000809362029093630260E070E080EA9FE3A1
:1034B0000E94643460936402709365028093660294
:1034C00090936702109268021092690210926A0249
:1034D00010926B021032E1F46091790270917A02DD
:1034E00080917B0290917C026093710270937202D2
:1034F00080937302909374029B01AC010E949B36EF
:10350000D10155966D937D938D939C9358970FC0E1
:10351000F101658976898789908D0E9428376093AB
:1035200071027093720280937302909374021092EE
:103530006D0210926E0210926F0210927002D10111
:1035400095968D909D90AD90BC909897A501940113
:1035500060E070E080E09FE30E9464342B013C0156
:10356000F101C1A4D2A4E3A4F4A4103209F04DC027
:10357000F2E0F0936C02D10155962D913D914D9161
:103580005C9158972D833E834F8358870E949B36CA
:103590009B01AC01C701B6010E9483332B013C01A2
:1035A00020E030E0A9010E945D3487FF1DC0A50125
:1035B0009401C501B4010E948433A70196010E94C1
:1035C0009B369B01AC016D817E818F8198850E9425
:1035D00083330E9428376093790270937A02809334
:1035E0007B0290937C022AC140926D0250926E023F
:1035F00060926F02709270021092790210927A02B9
:1036000010927B0210927C0219C110926C02C0923F
:103610007D02D0927E02E0927F02F09280020E94B0
:10362000A0244B015C016093790270937A0280932D
:103630007B0290937C029B01AC010E949B366983C4
:103640007A838B839C830091870210918802D80132
:1036500099962D913D914D915C919C9729873A8740
:103660004B875C8755962D913D914D915C91589774
:103670002D833E834F8358879B01AC016D817E81F2
:103680008F8198850E9483339B01AC01C301B201F5
:103690000E949B369B01AC0169857A858B859C8550
:1036A0000E94843320E030E040E05FE30E949B36DC
:1036B0006B017C0120E030E0A9010E946036181601
:1036C0000CF0ACC029853A854B855C85C701B601F5
:1036D0000E945D3487FF8EC0F80181A092A0A3A054
:1036E000B4A029813A814B815C81C501B4010E945B
:1036F00083339B01AC01C301B2010E949B366093EE
:103700008102709382028093830290938402A701C6
:1037100096010E945D3487FF3DC0C501B4010E943F
:1037200028376093750270937602809377029093A6
:103730007802A50194016D817E818F8198850E9418
:103740005D34811104C0F1E0F0936C0277C02D81EB
:103750003E814F815885C501B4010E9483339B018E
:10376000AC01C301B2010E949B369B01AC01609188
:103770007D0270917E0280917F02909180020E9472
:10378000833360937D0270937E0280937F029093D7
:10379000800254C0C0927D02D0927E02E0927F02ED
:1037A000F0928002C0928102D0928202E092830263
:1037B000F0928402D80195966D917D918D919C91A6
:1037C00098979B01AC010E948433A70196010E9447
:1037D0009B3629813A814B815C810E9484330E940F
:1037E00028376093750270937602809377029093E6
:1037F000780224C0B2E0B0936C0280917102909183
:103800007202A0917302B09174028093750290933A
:103810007602A0937702B093780210C010927D02D6
:1038200010927E0210927F021092800280927502A6
:1038300090927602A0927702B092780280918D02E7
:10384000F6E0F89FF0011124E654FD4FFE83ED836E
:1038500080915A02828320918702309188023E87AC
:103860002D87D9019996BC91BCA7F901F2A5FDA7B6
:10387000D9019B96BC91BEA7F901F4A5FFA72091A1
:1038800064023091650240916602509167026CA516
:103890007DA58B2F9F2F0E94833368A779A78AA7C6
:1038A0009BA720E030E0A9010E945D3487FF04C09F
:1038B00018A619A61AA61BA620917D02288F309162
:1038C0007E02398F40917F024A8F509180025B8F38
:1038D000809175028C8F909176029D8FA0917702D6
:1038E000AE8FB0917802BF8FE0918102E8A3F09192
:1038F0008202F9A3209183022AA3309184023BA380
:1039000040916D024CA350916E025DA380916F02B5
:103910008EA3909170029FA32091790230917A0238
:1039200040917B0250917C0228AB39AB4AAB5BAB38
:10393000309171023983409172024987209073025D
:103940003090740250916C025F878CA58C8B9DA582
:103950009D8BAEA5AE8BBFA5BF8B3EE3C32E33ECD4
:10396000D32E3EE2E32E39E3F32E188A198A1A8AFF
:103970001B8A26013701EF85EE2321F0E13009F49F
:103980007CC0B1C0AD85BE8595962D913D914D9180
:103990005C919897C701B6010E949B364B015C0170
:1039A00020E030E040E05FE30E949B369B01AC01E9
:1039B00069817985C1010E9484339B01AC01C701F3
:1039C000B6010E949B369B01AC016C897D898E8972
:1039D0009F890E9483338B018DAB9CAB288D398DE1
:1039E0004A8D5B8D0E945D3487FF3FC0288D398DE5
:1039F0004A8D5B8D6CA57DA58EA59FA50E94833306
:103A00009B01AC010E9484336B017C012C8D3D8DA8
:103A10004E8D5F8D69817985C1010E9484339B0140
:103A2000AC01C701B6010E9464346B017C0128A17E
:103A300039A14AA15BA1688D798D8A8D9B8D0E94E9
:103A40005D34882319F0B1E0BF8702C0E2E0EF8760
:103A5000FC8DF9832D8D29872E8C3F8C088D198D37
:103A60003A8D3DAB4B8D4CABAFC0A5019401698144
:103A70007985C1010E9484337CC0A70196016C8DB9
:103A80007D8D8E8D9F8D0E949B369B01AC016C8934
:103A90007D898E899F890E9483338B018DAB9CAB7E
:103AA00028A139A14AA15BA10E945D3487FF8CC087
:103AB00028A139A14AA15BA16C897D898E899F8942
:103AC0000E9483332C8D3D8D4E8D5F8D0E9464341A
:103AD0006B017C0108A119A15AA15DAB8BA18CAB34
:103AE00092E09F8771C0AD85BE8595962D913D91E1
:103AF0004D915C919897C701B6010E949B364B018E
:103B00005C019B01AC0169817985C1010E9460362D
:103B100018169CF520E030E040E05FE3C501B401F9
:103B20000E949B369B01AC0169817985C1010E948D
:103B300083339B01AC01C701B6010E949B369B01F8
:103B4000AC016C897D898E899F890E9483338B01AA
:103B50008DAB9CAB2CA13DA14EA15FA10E94603614
:103B600018165CF4A501940169817985C1010E9450
:103B70008333698379871C0127C02CA13DA14EA105
:103B80005FA16C897D898E899F890E9483339B0107
:103B9000AC010E9484336B017C0128A939A94AA990
:103BA0005BA969817985C1010E9484339B01AC01C5
:103BB000C701B6010E9464346B017C010CA11DA1F8
:103BC000BEA1BDABEFA1ECABA701960168897989D5
:103BD0008A899B890E948433688B798B8A8B9B8B23
:103BE000A30192010E945D3487FD5AC028A539A522
:103BF0004AA55BA5B8018DA99CA90E94603618163C
:103C00000CF444C089819985D1018093710290930D
:103C10007202A0937302B0937402FF85F0936C025A
:103C20004090600250906102609062027090630266
:103C300098014DA95CA9C301B2010E949B3669831A
:103C40007A838B839C830E944A346B017C01609150
:103C50005C0270915D0280915E0290915F020E9411
:103C60004A344B015C01A70196010E9483330E94F4
:103C7000D13469877A878B879C87E985FA85AD81FE
:103C8000BE81ED93FC933097B1F15AC02EE333EC33
:103C90004EE259E3C301B2010E9484332B013C017F
:103CA000288939894A895B89C301B2010E9483331B
:103CB0006B017C012CA13DA14EA15FA1B8018DA992
:103CC0009CA90E94603618167CF089819985D101E3
:103CD0008093710290937202A0937302B093740266
:103CE0003F8530936C029CCF0C8B1D8B4DA94E8B66
:103CF0005CA95F8B40CE80919A06803209F51092C4
:103D00007102109272021092730210927402109259
:103D100068021092690210926A0210926B02C092BD
:103D20005C02D0925D02E0925E02F0925F02A3011B
:103D30009201C701B6010E946434AD85BE85EEC014
:103D4000209168023091690240916A0250916B02A1
:103D5000688979898A899B890E9484332B013C0177
:103D600029813A814B815C81C501B4010E94833372
:103D70009B01AC01C301B2010E9464344B015C01A0
:103D800029813A814B815C81C701B6010E9483334E
:103D9000A50194010E949B366093680270936902AA
:103DA00080936A0290936B0220EC31EE44E65EE46D
:103DB000C501B4010E949B360E944A340E94D1344E
:103DC000603DB7E07B078105910520F4ED81FE8120
:103DD000158231C0603AFFE07F078105910510F43C
:103DE000E1E009C06034FFE17F078105910510F42F
:103DF000E2E001C0E3E0AD81BE811596EC93AD81B8
:103E0000BE8115962C911597022E04C09695879524
:103E1000779567950A94D2F7E985FA8502C0EE0F87
:103E2000FF1F2A95E2F7ED93FC9361157105F1E010
:103E30008F07910538F4AD81BE8114967C936E9303
:103E4000139706C02FEF3FEFED81FE81348323836C
:103E500080918C0280938D028F5F863019F0809361
:103E60008C0202C010928C0220916D0230916E0281
:103E700040916F0250917002B8018DA99CA90E94D7
:103E800060361816C4F4E0918702F0918802C801E8
:103E9000ADA9BCA981A792A7A3A7B4A789819A813C
:103EA000AB81BC8180935C0290935D02A0935E0223
:103EB000B0935F024DCA20E030E0A901B8018DA99E
:103EC0009CA90E9460361816ACF5109271021092EF
:103ED0007202109273021092740210926802109291
:103EE000690210926A0210926B02C0925C02D09238
:103EF0005D02E0925E02F0925F02009187021091F3
:103F000088022091600230916102409162025091DA
:103F10006302C701B6010E946434D80199966D937B
:103F20007D938D939C939C970E94E72788E08093D4
:103F30009A0607C010928802109287020E947C2481
:103F400007CAE5960FB6F894DEBF0FBECDBFDF916E
:103F5000CF911F910F91FF90EF90DF90CF90BF9086
:103F6000AF909F908F907F906F905F904F903F9019
:103F70002F900895F999FECF92BD81BD81E08FBB4E
:103F800080B50895F894F999FECF92BD81BD81E086
:103F90008FBB40B54627842F992787FD9095262F04
:103FA00030E082239323892B39F06F3F19F060BDF5
:103FB00084E006C084E104C0442321F060BD84E2B3
:103FC0008FBBF99A789408959F92AF92BF92CF9247
:103FD000DF92EF92FF920F931F93CF93DF938C01A9
:103FE0007A016B01C40ED51EEB01912C5C01A61A5F
:103FF000B70ACE018A0D9B1DCC15DD0591F09110FD
:1040000009C0692D772767FD7095272F221F22276A
:10401000221F01C021E06991922E960E0E94C21FBC
:10402000E8CF692DC8018E0D9F1DDF91CF911F91A3
:104030000F91FF90EF90DF90CF90BF90AF909F9047
:104040000C94C21F9F92AF92BF92CF92DF92EF92D9
:10405000FF920F931F93CF93DF938B017A016C0133
:10406000C40ED51EEC01912C5B01A81AB90AC5013A
:104070008C0F9D1FCC15DD0591F00E94BA1F911089
:1040800009C0292D332727FD3095232F221F2227F2
:10409000221F01C021E0922E980E8993E8CFC8011B
:1040A0008E0D9F1D0E94BA1F21E030E0981611F07E
:1040B00020E030E0C901DF91CF911F910F91FF9077
:1040C000EF90DF90CF90BF90AF909F90089521E543
:1040D000829FC001112440E550E09D5F0C94E41FD5
:1040E00040E550E0BC018EEA93E00C94E41F21E12E
:1040F000829FC001112440E150E09E5F0C94E41FB8
:1041000069E080E090E00E94C21F4DE550E067E06A
:1041100078E081E090E00C94E41F8AE08093470807
:1041200089E180934A081092480886E08093490804
:1041300083E080934B088AE097EDA3EABCE3809389
:104140004C0890934D08A0934E08B0934F088FE60B
:1041500092E1A3E0BBE38093500890935108A093B1
:104160005208B09353081092550880E090E0A8ECF4
:10417000B1E48093560890935708A0935808B093E1
:10418000590880E090E0AAEFB3E480935A08909336
:104190005B08A0935C08B0935D082AEF30E0309391
:1041A0005F0820935E0840E050E060E87FE34093C2
:1041B000600850936108609362087093630822E07E
:1041C0002093540840E050E06AE773E44093070806
:1041D000509308086093090870930A0840930B08ED
:1041E00050930C0860930D0870930E0840930F08CD
:1041F00050931008609311087093120840931308AD
:10420000509314086093150870931608809317084C
:1042100090931808A0931908B0931A0880931B086C
:1042200090931C08A0931D08B0931E0880931F084C
:1042300090932008A0932108B0932208809323082C
:1042400090932408A0932508B093260880E090EA74
:10425000ACE0B7E48093270890932808A09329083E
:10426000B0932A0880932B0890932C08A0932D08D4
:10427000B0932E0880932F0890933008A0933108B4
:10428000B09332088093330890933408A093350894
:10429000B093360880E090E0A8E4B3EC8093370850
:1042A00090933808A0933908B0933A0880933B085C
:1042B00090933C08A0933D08B0933E0880933F083C
:1042C00090934008A0934108B0934208809343081C
:1042D00090934408A0934508B09346080C9480201E
:1042E00060E080E093E00E94C21F60E081E593E01F
:1042F0000C94C21F60E08EEA93E00C94C21F1F93DF
:10430000CF93DF93182FEB0181E5189FB0011124A3
:104310007D5F40E550E0CE010E942220892B39F4D8
:104320001882BE01812F0E94672080E001C081E0D9
:10433000DF91CF911F910895CF93DF93EC0140E57A
:1043400050E06EEA73E00E942220892B31F418823B
:10435000CE010E94702080E001C081E0DF91CF910A
:1043600008951F93CF93DF93182FEB0181E1189FDE
:10437000B00111247E5F40E150E0CE010E94222076
:10438000892B59F480E1FE0111928A95E9F7BE016B
:10439000812F0E94772080E001C081E0DF91CF91E2
:1043A0001F91089580E090E00E94BA1F893059F46F
:1043B0004DE550E061E070E087E098E00E94222047
:1043C00021E0892B09F420E0822F0895CF92DF921B
:1043D000EF92FF92CF93DF93C82F6A017B0120E019
:1043E00030E0A901C701B6010E945D3487FDEDC030
:1043F000C43608F445C02CE92C0F80E02430B8F511
:1044000030E0823079F0F901EE0FFF1FEE0FFF1F51
:10441000833011F1813019F0E95FF74F23C0E95E75
:10442000F74F20C0E901CC0FDD1FCC0FDD1FC95DA8
:10443000D74F20E030E040E752E4C701B6010E94C8
:104440009B3620E030E040E752E40E949B366883D0
:1044500079838A839B83B5C0E95CF74FF7FAF094C0
:10446000F7F8F094C082D182E282F382AAC08F5F13
:104470002A3008F4ACC0843009F4A9C02A50BECF59
:10448000C701B6010E9469370E94D1348C2F90E099
:104490008C31910508F09BC0FC01EE56FF4F0C9447
:1044A000C137633008F495C0609347088AC06093B1
:1044B0004A0887C06093480802C0609349080E9478
:1044C000E2187FC080915408662311F0846007C011
:1044D0008B7F05C080915408662321F0806480930F
:1044E00054086FC08F7BFBCF80915408662311F076
:1044F0008068F5CF8F77F3CF60934B08C0924C085C
:10450000D0924D08E0924E08F0924F085AC0C092E7
:104510005008D0925108E0925208F092530851C0CE
:1045200080915408662311F08160D9CF8E7FD7CF58
:1045300080915408662311F08260D1CF8D7FCFCF58
:1045400080915408662321F084FF45C08062C7CF64
:104550008F7DC5CF80915408662311F0886001C01B
:10456000877F809354080E94DD282BC080915408D7
:10457000662311F08061B3CF8F7CB1CF6093550873
:1045800020C0C0925608D0925708E0925808F09286
:10459000590817C0C0925A08D0925B08E0925C0894
:1045A000F0925D080EC070E070935F0860935E0843
:1045B00008C0C0926008D0926108E0926208F09250
:1045C00063080E94802080E007C084E005C083E08B
:1045D00003C086E001C08AE0DF91CF91FF90EF90A9
:1045E000DF90CF9008951F93CF93DF93CDB7DEB7C1
:1045F00060970FB6F894DEBF0FBECDBF0E94D221E8
:1046000081110BC087E00E94F22C0E948D200E9435
:1046100070210E947A210E948D2D10E0BE016F5FF3
:104620007F4F812F0E94B121811103C087E00E943A
:10463000F22C1F5F183091F760960FB6F894DEBF2A
:104640000FBECDBFDF91CF911F910895882331F028
:10465000813031F0823031F480E1089581E00895B5
:1046600084E0089580E40895882331F0813031F0AA
:10467000823031F480E2089582E0089588E0089560
:1046800080E80895882331F0813031F0823031F4B0
:1046900080E1089580E4089580E2089588E0089517
:1046A0004F925F926F927F928F929F92AF92BF9242
:1046B000CF92DF92EF92FF920F931F93CF93DF93EE
:1046C00010916D03111101C012E1115000916B03A3
:1046D000101709F4EFC08DE2189FE0011124C159B1
:1046E000DC4F898C9A8CAB8CBC8C6DA17EA18FA188
:1046F00098A59B01AC010E94843329A53AA54BA53E
:104700005CA50E949B366B017C019B01AC01B4014E
:10471000C5010E945D3487FF02C064017501A601D6
:10472000B7014D8B5E8B6F8B788F111101C012E139
:1047300077247A94710E701619F02DE2622E27C03C
:1047400080916E03081351C00E946C194EC0679C83
:104750008001112401591C4F711002C092E1792E81
:104760007A9480916E03781202C00E946C19F8014D
:10477000C18CD28CE38CF48CA70196016589768973
:104780008789908D0E945D34811106C0E801809177
:104790006B037812DCCF29C0F80165A176A187A14F
:1047A00090A59B01AC010E948433F80121A532A59C
:1047B00043A554A50E949B362D893E894F89588D6B
:1047C0000E9484334B015C01A70196010E945D3475
:1047D000F80187FF05C0858A968AA78AB08ED6CF52
:1047E000C58AD68AE78AF08ED1CF60906B03FDE24E
:1047F0006F9E8001112401591C4F77247394760C0D
:1048000082E1781201C0712C50906D038DE2482E28
:10481000751409F44DC0479CE0011124C159DC4FC7
:10482000F80185889688A788B08CCD88DE88EF88C7
:10483000F88CA7019601C501B4010E945D3487FF81
:1048400023C0F80165A176A187A190A59B01AC01C9
:104850000E948433F80121A532A543A554A50E94E6
:104860009B369B01AC01C501B4010E9484334B010E
:104870005C01A70196010E945D3487FF05C08D8A07
:104880009E8AAF8AB88E672C298D3A8D4B8D5C8DB0
:104890006D897E898F89988D0E945D34811101C058
:1048A000672C7394F2E17F1201C0712C8E01B0CF9E
:1048B00060926B03DF91CF911F910F91FF90EF906A
:1048C000DF90CF90BF90AF909F908F907F906F9030
:1048D0005F904F90089584E2E7E4F3E0DF011D92DA
:1048E0008A95E9F710926E0310926D0381E0809330
:1048F0006C0310926B03089590916E0380916D0389
:10490000891769F081E0890F823109F480E02091F4
:104910006B03921302C080936B0380936E03089520
:1049200080916E0390916D03981739F02DE2829F6C
:10493000C001112481599C4F089580E090E00895B2
:10494000E0916E03EF5FE23109F4E0E080916D03E6
:10495000E81761F08DE2E89FF0011124E159FC4F66
:10496000658976898789908D0C94283760E070E09E
:10497000CB01089581E020916E0390916C0329137F
:1049800080E008952F923F924F925F926F927F92B4
:104990008F929F92AF92BF92CF92DF92EF92FF924F
:1049A0000F931F93CF93DF93CDB7DEB7E5970FB685
:1049B000F894DEBF0FBECDBF142F052F6BA37CA3D1
:1049C000822E20916D033DE2239F10011124F101FD
:1049D000E159FC4F1F01118A128A138A148A11A609
:1049E00012A613A614A6108249E956E766E97EE7E7
:1049F00045A356A367A370A75C0137E0E32E38E018
:104A0000F32E9E012F5E3F4F3EA32DA387E493E03C
:104A100098A78FA36F01FE013196FAA7E9A7912C01
:104A2000F50161917191819191915F01F70120816F
:104A30003181428153810E949B360E946B36EDA1E9
:104A4000FEA16193719381939193FEA3EDA3EFA1D6
:104A5000F8A54190519061907190F8A7EFA3641967
:104A60007509860997092B013C0197FF07C044246B
:104A700055243201461A570A680A790AF60141821A
:104A8000528263827482F101218932894389548977
:104A9000421653066406750610F429013A01F10125
:104AA000418A528A638A748A0E94FF34F701208106
:104AB0003181428153810E9464342B013C01E9A57C
:104AC000FAA56193719381939193FAA7E9A720E0E6
:104AD00030E0A9010E945D3487FF0AC0F101908196
:104AE000892D9DAB0E9434239DA9892BF1018083E0
:104AF000A3019201C301B2010E949B36F10121A5DD
:104B000032A543A554A50E948433F10161A772A781
:104B100083A794A79394F4E0EF0EF11C24E0C20E57
:104B2000D11C34E093127CCF0E9428376B017C01AA
:104B3000F10161A772A783A794A781899289A389AC
:104B4000B489892B8A2B8B2B09F4DEC120E030E05D
:104B5000A901612F702F8BA19CA10E945D3487FD5C
:104B600021C0882061F0212F302F4BA15CA1C7010B
:104B7000B6010E946434162F072F8BA39CA320E05C
:104B800030E040E85FE3612F702F8BA19CA10E9471
:104B90005D3487FF0DC010E000E030E83BA38FE3F9
:104BA0008CA306C019E906E7F6E9FBA32EE72CA3C0
:104BB000A701960160E070E080E89FE30E94643402
:104BC00069AB7AAB8BAB9CABE7E5F3E0FAA7E9A75F
:104BD00027E138E038A72FA3CE0141969AA389A3F5
:104BE000FE013196FEA3EDA3C12CD12C7601EDA1DF
:104BF000FEA180809180A280B38020E030E0A901F6
:104C0000C501B4010E945D34882309F47FC029A93D
:104C10003AA94BA95CA9C501B4010E949B364B017E
:104C20005C01EDA1FEA160837183828393839B016C
:104C3000AC0160E070E080E89FE30E9464342B01E7
:104C40003C01E89477F8EFA1F8A5208131814281F9
:104C50005381C301B2010E949B366BA77CA78DA72D
:104C60009EA79B01AC01612F702F8BA19CA10E947C
:104C70005D3487FF06C01BA70CA7FBA1FDA72CA1D5
:104C80002EA7F101F5A1FBA3F101F6A1FCA3F1010F
:104C9000F7A1FFA7F101F0A5F8ABEFA1F8A52089D6
:104CA000318942895389C301B2010E949B363B017D
:104CB0008C019B01AC016BA17CA18FA598A90E94DE
:104CC0005D3487FF04C06BA07CA00FA518A9C301A9
:104CD000D801F10185A396A3A7A3B0A7E9A5FAA5DA
:104CE0002081318142815381C501B4010E949B36EC
:104CF0009B01AC01C701B6010E9483336B017C01AB
:104D00001BA50CA5FDA5FBA32EA52CA38DA19EA1E3
:104D100004969EA38DA3E9A5FAA53496FAA7E9A760
:104D20002FA138A52C5F3F4F38A72FA3E9A1FAA1E7
:104D30008E179F0709F05BCF90916D0380916E03F2
:104D400098130AC0F101158A168A178A108E158EDB
:104D5000168E178E10A249C0A701960160E070E080
:104D600080E89FE30E94833320E030E040E05FE38F
:104D70000E949B360E9428376B017C0120914C08D1
:104D800030914D0840914E0850914F08F10165A1B6
:104D900076A187A190A50E949B36A70196010E944B
:104DA0009B364B015C01A701960160E070E080E852
:104DB0009FE30E9483339B01AC01C501B4010E94B3
:104DC00064346B017C0120E030E0A9010E945D3475
:104DD00087FF04C0C12CD12CE12CF12CA601B70116
:104DE000F101458F568F678F70A3212F302F4BA174
:104DF0005CA1612F702F8BA19CA10E949B36162F66
:104E0000072FF82EE92E862F902FAF2DBE2DF10102
:104E100081A392A3A3A3B4A3A58CB68CC78CD0A066
:104E200060906703709068038090690390906A03B4
:104E30009301A401612F702F8F2D9E2D0E945D3450
:104E400087FD0BC09301A401B501C6010E945D342A
:104E500087FD11C0530164010EC0212F302F4F2D4B
:104E60005E2DB501C6010E945D3487FD04C0A12EF0
:104E7000B02ECF2CDE2CC501D601F101818F928F8F
:104E8000A38FB48F80E1FE013196A7E5B3E00190D6
:104E90000D928A95E1F7812F902FAF2DBE2D809333
:104EA000670390936803A0936903B0936A0380E15A
:104EB000FE017196A7E4B3E001900D928A95E1F7A7
:104EC00080916C0380936D038F5F823109F480E0E1
:104ED00080936C03E5960FB6F894DEBF0FBECDBF8E
:104EE000DF91CF911F910F91FF90EF90DF90CF90C6
:104EF000BF90AF909F908F907F906F905F904F90FA
:104F00003F902F900C945023E5960FB6F894DEBF97
:104F10000FBECDBFDF91CF911F910F91FF90EF900A
:104F2000DF90CF90BF90AF909F908F907F906F90C9
:104F30005F904F903F902F90089580919D069091A3
:104F40009E06A0919F06B091A00680934703909380
:104F50004803A0934903B0934A038091A10690911E
:104F6000A206A091A306B091A40680934B03909350
:104F70004C03A0934D03B0934E038091A5069091EE
:104F8000A606A091A706B091A80680934F03909320
:104F90005003A0935103B09352038091A9069091BE
:104FA000AA06A091AB06B091AC06809353039093F0
:104FB0005403A0935503B0935603089580916D0355
:104FC00090916E03891708F48E5E891B08950E94E4
:104FD0006C1980916E0380936B030C9450236F9235
:104FE0007F928F929F92AF92BF92CF92DF92EF9279
:104FF000FF920F931F93CF93DF937C018B016A0184
:10500000FB018081F701E80FF11D2081EF012D32B6
:1050100029F4229621816624639407C02B3211F073
:10502000219602C022962181612CA12CB12C712CD9
:1050300060E070E0CB01FE0130ED932E920E29E08E
:105040002915C8F0B39428E02B1588F0A1107A94A4
:10505000A5E0B0E09B01AC010E948837660F771F86
:10506000881F991F690D711D811D911D0BC0A11015
:1050700009C0739407C02EEF921207C0A11005C09B
:10508000AA24A39421962081D6CFBB2009F449C03D
:105090000E94FD344B015C0120E030E0A9010E9438
:1050A0005D34882361F18FEF78166CF42AE037EDD8
:1050B00043E25CE3C501B4010E949B364B015C01F5
:1050C00073947394F0CF78120BC02DEC3CEC4CEC45
:1050D0005DE3C501B4010E949B364B015C010FC02A
:1050E000772069F020E030E040E251E4C501B401EE
:1050F0000E949B364B015C017A9417149CF3662046
:1051000021F0B7FAB094B7F8B094F601808291829A
:10511000A282B382CE19DF09C150F801C08381E0B9
:1051200001C080E0DF91CF911F910F91FF90EF9030
:10513000DF90CF90BF90AF909F908F907F906F90B7
:105140000895009741F0EFE9FFE03197F1F700C0D3
:1051500000000197F6CF08958F929F92AF92BF9271
:10516000CF92DF92EF92FF9269017A019B01AC012D
:105170000E949B364B015C01A7019601C701B60155
:105180000E949B369B01AC01C501B4010E9484338F
:10519000FF90EF90DF90CF90BF90AF909F908F9057
:1051A0000C942837EBE6F0E0808187788083E8E68E
:1051B000F0E080818E7F8083089587B1877887B9FA
:1051C0009091540888B196FF02C0877801C0886723
:1051D00088B993FF0BC080916B00886780936B0048
:1051E0008091680081608093680008950C94D228B3
:1051F0001F920F920FB60F9211240BB60F922F939E
:105200003F934F935F936F937F938F939F93AF934E
:10521000BF93EF93FF9380919A06813071F0809154
:105220009B0685FD0AC00E94AA099FB7F894809149
:105230009B06806680939B069FBFFF91EF91BF9175
:10524000AF919F918F917F916F915F914F913F911E
:105250002F910F900BBE0F900FBE0F901F901895BF
:105260002F923F924F925F926F927F928F929F9276
:10527000AF92BF92CF92DF92EF92FF920F931F9364
:10528000CF93DF93CDB7DEB76F970FB6F894DEBF3D
:105290000FBECDBF8F8F809199068111ABC1409019
:1052A0005A0850905B0860905C0870905D0827E396
:1052B00038E03E8F2D8FAE014F5E5F4F5A018E0159
:1052C0000B5E1F4F212C1B8E812C912C312C832D9A
:1052D0000E944223F80181938F01832D0E9426238F
:1052E000F50181935F01ED8DFE8DC190D190E1902C
:1052F000F190FE8FED8FA7019601622D7B8DC40189
:105300000E94603618161CF0C22CDB8C740133949A
:10531000F4E03F1621F02C2CDB8E4701D8CF20E0A3
:1053200030E040EC5FEBC701B6010E949B366B0199
:105330007C010E946B2434E0332E01E03F8D232F4B
:1053400030E03E8F2D8F46015701B7FAB094B7F881
:10535000B094AE014B5E5F4F5A8F498F80915408D5
:1053600086FD02C0202E03C0222423942026809193
:105370005508682F70E0FE01319680E090E010E063
:105380001B8E282F4D8D5E8D082E02C0559547959A
:105390000A94E2F7DA01A170BB2740FF0FC05B8DD2
:1053A0005F5F5B8F011105C080829182A282B38210
:1053B00009C0C082D182E282F38204C010821182CD
:1053C00012821382AB0102C0559547952A95E2F7E8
:1053D00040FF09C020813181428153815058208390
:1053E000318342835383AB2B41F0A1E1B0E0AC0F9A
:1053F000BD1FA80FB91F2C91122B01963496843033
:10540000910509F0BECF5B8D652F70E080E090E0E4
:105410000E94FD340E9428379B01AC0110939C062A
:10542000C301B2010E949B36AB01BC0120E0CE015A
:1054300001960E94C2240E948E190E94021628E73B
:10544000722E86B121108725DE015596FE017196D8
:105450002191922F912329F09C91982311F020956E
:1054600012231196298D3A8DE217F30789F71093CD
:105470009C060E948E1980919B0684FF03C00E94A7
:10548000D614B8C0812F8575E1F60E941E190E94BE
:105490006B2480915E0890915F080E94A128409043
:1054A000560850905708609058087090590881E04D
:1054B00008273A9409F052CF80915508482F50E0C0
:1054C0005C8F4B8FC0906008D0906108E0906208BC
:1054D000F09063088DE9A82E86E0B82E97E0292E7B
:1054E00098E0392ECE0101964C0100E010E08D8D40
:1054F0009E8D002E02C0959587950A94E2F780FF55
:1055000036C08B8D9C8D002E02C0959587950A9490
:10551000E2F780FF21C0F10140A851A862A873A85A
:10552000A3019201C701B6010E948433F401608394
:10553000718382839383F101208131814281538180
:10554000C301B2010E949B360E946B36F501608355
:105550007183828393831EC0F401C082D182E28270
:10556000F382F501108211821282138213C0F501B9
:1055700060817181828193810E94FF34F1012081D9
:105580003181428153810E946434F40160837183CC
:10559000828393830F5F1F4FF4E08F0E911C24E0F2
:1055A000A20EB11C34E0230E311C0430110509F0A9
:1055B0009ECF0E949D2740915A0850915B086091B0
:1055C0005C0870915D0820E0CE0101960E94C22423
:1055D00088E080939A069FB7F89480919B0682603A
:1055E00080939B069FBF0E94D6140E94E81584E01A
:1055F00080939A066F960FB6F894DEBF0FBECDBFAC
:10560000DF91CF911F910F91FF90EF90DF90CF909E
:10561000BF90AF909F908F907F906F905F904F90D2
:105620003F902F900895CF92DF92EF92FF920F93C9
:105630001F93CF93DF938C01C7E3D8E0F801C190AB
:10564000D190E190F1908F0120E030E0A901C701F5
:10565000B6010E946036181654F02991399149918B
:105660005991C701B6010E945D3487FF27C0809120
:105670009A06803179F49FB7F89480919B068860F0
:1056800080939B069FBF0E94D61480919906882321
:10569000D1F319C00E94AA099FB7F89480919B0684
:1056A000806680939B069FBFDF91CF911F910F91E2
:1056B000FF90EF90DF90CF900C94D614F8E0C734B1
:1056C000DF0709F0BBCFDF91CF911F910F91FF90C2
:1056D000EF90DF90CF900895CF93DF93EC01899105
:1056E000882319F00E941914FACFDF91CF91089501
:1056F000CF93DF93FC018491EF012196882321F061
:105700000E941914FE01F7CFDF91CF910895EF9217
:10571000FF920F931F93CF93DF93CDB7DEB72897F8
:105720000FB6F894DEBF0FBECDBFFE0131967F01EC
:105730009E01275F3F4F982F917091938695E217B6
:10574000F307C9F78F01F80182918F01805D0E94F4
:1057500019140E151F05B9F728960FB6F894DEBF79
:105760000FBECDBFDF91CF911F910F91FF90EF90B2
:1057700008951F93CF93DF9300D0CDB7DEB781118B
:1057800009C080E30F900F900F90DF91CF911F9190
:105790000C94191490E02AE011E0190FE1E0F0E018
:1057A000EC0FFD1FE90FF11D622F0E949337905DF2
:1057B0009083882311F0912FEFCF112341F0FE0148
:1057C000E10FF11D80810E9419141150F6CF0F9046
:1057D0000F900F90DF91CF911F9108958F929F921C
:1057E000AF92BF92CF92DF92EF92FF920F931F93EF
:1057F000CF93DF93CDB7DEB72A970FB6F894DEBF0D
:105800000FBECDBF6B017C01142F20E030E0A90159
:105810000E945D3487FF07C08DE20E941914F7FAD9
:10582000F094F7F8F094012F023060F020E030E0BF
:1058300048EC52E4C701B6010E949B366B017C0123
:105840000250F2CF10FF0AC020E030E040E251E405
:10585000C701B6010E949B366B017C0120E030E05D
:1058600040E05FE3C701B6010E9484330E94CC345C
:10587000E1E0F0E0EC0FFD1FE10FF11D2EE22083CF
:10588000D12C5AE0852E912CA12CB12C61157105DB
:1058900081059105A9F0D11201C0D394EE24E394BF
:1058A000F12CEC0EFD1EED0CF11CA50194010E94E3
:1058B0009F37605DF7016083B901CA01D394E6CFD9
:1058C00080E3D11648F4E1E0F0E0EC0FFD1FED0DB0
:1058D000F11D8083D394F5CF8D2DD1120BC0D394BD
:1058E000D3948F5FE1E0F0E0EC0FFD1FE80FF11DB6
:1058F00080E38083DD2041F0FE01ED0DF11D80810C
:105900000E941914DA94F6CF2A960FB6F894DEBFE7
:105910000FBECDBFDF91CF911F910F91FF90EF9000
:10592000DF90CF90BF90AF909F908F90089520917F
:10593000540820FF08C02BE832E441E25DE30E94F6
:105940009B3644E001C043E00C94EE2B20915408B8
:1059500020FF08C02BE832E441E25DE30E949B3661
:1059600041E001C040E00C94EE2B43E00C94EE2BA0
:1059700080910701877F809307018091540887FFFA
:1059800008C080910801877F809308011092640805
:1059900008958091080188608093080188E08093D1
:1059A00064080895809106018870909164088927A1
:1059B00008958091AE068130A1F40E94D22C8823F4
:1059C00081F01092AE0680E1EDE9F6E0AFEAB6E0D4
:1059D00001900D928A95E1F780919B0688608093F3
:1059E0009B060895CF93C82F811103C08AE898E0E1
:1059F00044C082E898E00E94782B4C2F50E0FA01D6
:105A00003197E631F10580F5E255FF4F0C94C1372F
:105A10008AE698E002C088E598E00E94782B2BC0C7
:105A200086E498E0FACF8CE398E0F7CF8BE298E039
:105A3000F4CF8CE198E0F1CF8BEF97E0EECF82EFDF
:105A400097E0EBCF87EE97E0E8CF84ED97E0E5CFE6
:105A500086EC97E0E2CF80EB97E0DFCF8CE997E030
:105A6000DCCF88E897E0D9CF86E797E00E94782BD3
:105A70008C2F0E94B92B83E797E0CF910C94782B61
:105A8000CF93C82F8BE697E00E94782BCE3F51F042
:105A9000CF3F29F0CD3F51F48DE397E005C08BE572
:105AA00097E002C088E497E00E94782B8AE397E0B1
:105AB0000E94782B84EF91E0CF910C94A128CF9392
:105AC000C82F88E397E00E94782BC33091F038F418
:105AD000C13061F0C230A1F482E197E00FC0C43060
